{
  "contractName": "Wallet",
  "abi": [
    {
      "constant": true,
      "inputs": [],
      "name": "fiatAmount",
      "outputs": [
        {
          "name": "",
          "type": "uint256"
        }
      ],
      "payable": false,
      "stateMutability": "view",
      "type": "function"
    },
    {
      "inputs": [
        {
          "name": "_fiatAmount",
          "type": "uint256"
        }
      ],
      "payable": false,
      "stateMutability": "nonpayable",
      "type": "constructor"
    },
    {
      "constant": false,
      "inputs": [
        {
          "name": "amount",
          "type": "uint256"
        }
      ],
      "name": "topUp",
      "outputs": [],
      "payable": false,
      "stateMutability": "nonpayable",
      "type": "function"
    },
    {
      "constant": false,
      "inputs": [
        {
          "name": "amount",
          "type": "uint256"
        }
      ],
      "name": "withdraw",
      "outputs": [],
      "payable": false,
      "stateMutability": "nonpayable",
      "type": "function"
    }
  ],
  "bytecode": "0x608060405234801561001057600080fd5b506040516020806101938339810180604052810190808051906020019092919050505080600081905550506101498061004a6000396000f300608060405260043610610057576000357c0100000000000000000000000000000000000000000000000000000000900463ffffffff1680632e1a7d4d1461005c57806350017f3e1461008957806385aa2452146100b6575b600080fd5b34801561006857600080fd5b50610087600480360381019080803590602001909291905050506100e1565b005b34801561009557600080fd5b506100b460048036038101908080359060200190929190505050610109565b005b3480156100c257600080fd5b506100cb610117565b6040518082815260200191505060405180910390f35b6000816000540310156100fa5760008081905550610106565b80600054036000819055505b50565b806000540160008190555050565b600054815600a165627a7a723058200becf29c9e14eb8b76499aeb234502df08148601da6109e111eb03f6582182c70029",
  "source": "pragma solidity ^0.4.16;\n\ncontract Wallet {\n  uint public fiatAmount;\n\n  constructor (uint _fiatAmount) public {\n    fiatAmount = _fiatAmount;\n  }\n\n  function topUp (uint amount) public {\n    fiatAmount = fiatAmount + amount;\n  }\n\n  function withdraw (uint amount) public {\n    if (fiatAmount - amount < 0) {\n      fiatAmount = 0;\n    } else {\n      fiatAmount = fiatAmount - amount;\n    }\n  }\n}\n",
  "sourcePath": "/Users/hegeduslevente/code/demo_meetup/smartContracts/solidity/contracts/Wallet.sol",
  "compiler": {
    "name": "solc",
    "version": "0.4.24+commit.e67f0147.Emscripten.clang"
  },
  "schemaVersion": "2.0.0",
  "updatedAt": "2018-06-19T05:26:46.977Z"
}