{
  "contractName": "Wallet",
  "abi": [
    {
      "constant": true,
      "inputs": [],
      "name": "fiatAmount",
      "outputs": [
        {
          "name": "",
          "type": "uint256"
        }
      ],
      "payable": false,
      "stateMutability": "view",
      "type": "function"
    },
    {
      "inputs": [
        {
          "name": "_fiatAmount",
          "type": "uint256"
        }
      ],
      "payable": false,
      "stateMutability": "nonpayable",
      "type": "constructor"
    },
    {
      "constant": false,
      "inputs": [
        {
          "name": "amount",
          "type": "uint256"
        }
      ],
      "name": "topUp",
      "outputs": [],
      "payable": false,
      "stateMutability": "nonpayable",
      "type": "function"
    },
    {
      "constant": false,
      "inputs": [
        {
          "name": "amount",
          "type": "uint256"
        }
      ],
      "name": "withdraw",
      "outputs": [],
      "payable": false,
      "stateMutability": "nonpayable",
      "type": "function"
    }
  ],
  "bytecode": "0x608060405234801561001057600080fd5b5060405160208061016c8339810180604052810190808051906020019092919050505080600081905550506101228061004a6000396000f3006080604052600436106053576000357c0100000000000000000000000000000000000000000000000000000000900463ffffffff1680632e1a7d4d14605857806350017f3e14608257806385aa24521460ac575b600080fd5b348015606357600080fd5b5060806004803603810190808035906020019092919050505060d4565b005b348015608d57600080fd5b5060aa6004803603810190808035906020019092919050505060e2565b005b34801560b757600080fd5b5060be60f0565b6040518082815260200191505060405180910390f35b806000540360008190555050565b806000540160008190555050565b600054815600a165627a7a7230582073243ed3454453f7f7b28f94ca606f4e2273ba890fd131e5800c2c1a076e3d1e0029",
  "source": "pragma solidity ^0.4.16;\n\ncontract Wallet {\n  uint public fiatAmount;\n\n  constructor (uint _fiatAmount) public {\n    fiatAmount = _fiatAmount;\n  }\n\n  function topUp (uint amount) public {\n    fiatAmount = fiatAmount + amount;\n  }\n\n  function withdraw (uint amount) public {\n    fiatAmount = fiatAmount - amount;\n  }\n}\n",
  "sourcePath": "/Users/hegeduslevente/code/demo_meetup/smartContracts/solidity/contracts/Wallet.sol",
  "compiler": {
    "name": "solc",
    "version": "0.4.24+commit.e67f0147.Emscripten.clang"
  },
  "schemaVersion": "2.0.0",
  "updatedAt": "2018-06-21T06:30:55.161Z"
}